:020000040800F2
:1000000028050020A9010008B3200008731F00087C
:10001000B120000841090008112900080000000073
:10002000000000000000000000000000D7200008D1
:100030004309000800000000D5200008D92000086E
:10004000C3010008C3010008C3010008C301000880
:10005000C3010008C3010008C3010008C301000870
:10006000C3010008C3010008C3010008C301000860
:10007000C3010008C3010008C3010008C301000850
:10008000C3010008C3010008C3010008000000000C
:10009000000000000000000000000000C301000894
:1000A000C3010008C3010008C3010008C301000820
:1000B000C3010008CD210008C3010008C3010008E6
:1000C000C3010008C3010008C3010008C301000800
:1000D000C3010008C3010008052900080000000052
:1000E000C3010008C3010008C301000800000000AC
:1000F000000000000000000000000000C301000834
:1001000000000000C3010008C3010008C30100088B
:1001100000000000000000000000000000000000DF
:10012000C3010008C3010008C3010008C30100089F
:10013000C3010008000000000000000000000000F3
:10014000000000000000000000000000C3010008E3
:10015000C3010008C3010008C3010008C30100086F
:10016000C3010008C30100080000000000000000F7
:10017000000000000000000000000000000000007F
:1001800000000000C30100080000000000000000A3
:10019000C3010008DFF80CD000F01AFB004800474C
:1001A00021320008280500200648804706480047FD
:1001B000FEE7FEE7FEE7FEE7FEE7FEE7FEE7FEE717
:1001C000FEE7FEE779210008950100082DE9FE4FC2
:1001D000804681EA0300C00F0C46009021F00041E8
:1001E00023F00045B8EB0200A94105D24046214664
:1001F00090461C460B46024623F00040104347D071
:10020000270DC7F30A00C3F30A510290401A019068
:1002100040286BDAC3F3130040F4801B0098924629
:1002200020B10023D2EB030A63EB0B0B0198594674
:10023000C0F14002504600F0E5F906460D46504632
:100240005946019A00F0EDF910EB080061410024D5
:1002500087EA115284EAE7731A4340D0009A62B3E6
:10026000019A012A4FEA075215DC001B61EB0201DB
:100270004FF0004202EA0752CDE90042001C41F56E
:10028000801132462B4600F024FA03B0BDE8F08F0F
:1002900040462146F9E7001B61EB0201001C41F5D5
:1002A000801300185B412018A2F5001747EB0301EB
:1002B00040EAD570B6196D4111E06D084FEA360677
:1002C00045EAC0754FEA0752001B61EB0201001CB2
:1002D00041F5801149084FEA30000019514132467A
:1002E0002B4603B0BDE8F04F00F0E4B900980122BE
:1002F00040000023D0EB020263EBE073009821463C
:100300004FEAE074B8EB000061EB0401E9E783F029
:1003100000435BE781F0004158E72DE9FE4F81EA99
:10032000030404F0004421F0004100944FF0000B5E
:1003300023F0004350EA01045ED052EA03045BD08C
:10034000C3F30A54C1F30A552C44A4F2F3340194C4
:10035000A0FB0254C1F3130141F48011C3F3130352
:1003600043F4801301FB024400FB034E840A970A06
:1003700044EA815447EA8357A4FB076802958D0A33
:1003800005FB07854FEA932C04FB0C542705029DBF
:100390004FEA065847EA1637B5EB08056EEB070C2F
:1003A000870E920E47EA811742EA8312A7FB0201E9
:1003B000B6EB0B0164EB00042B0D43EA0C335E1823
:1003C00044EB1C50DA465146E7FB0201C5F3130427
:1003D0004FEA0B3343EA14534FEA0432019C43EAD9
:1003E0000603A4F10C040294009CCDE900B400F0D3
:1003F00070F903B0BDE8F08F00200146F9E72DE960
:10040000F04D81EA030404F0004B21F0004514464E
:100410004FF0000A23F0004150EA050220D054EAD0
:1004200001021DD0C5F30A570246C5F31303C1F3F9
:100430001300C1F30A5640F4801543F48013A7EB70
:100440000608101BD64608F2FD3873EB050002D3F0
:1004500008F1010801E092185B41B8F1000F03DADE
:1004600000200146BDE8F08D00204FF480110646C3
:1004700084460EE0171B73EB050705D3121B63EBD5
:10048000050306434CEA010C49084FEA3000921874
:100490005B4150EA0107EDD152EA030012D082EA33
:1004A000040083EA0501084305D0101BAB4106D2C6
:1004B0000122002306E000224FF0004302E06FF02B
:1004C000010253101AEB06004CEB085110EB0A0026
:1004D00041EB0B01BDE8F04D00F0ECB80EB5C10FDB
:1004E00080EAE0700844CA07002140F233438DE8F7
:1004F0000E000A460B4600F0ECF803B000BD0EB546
:1005000040F2334102910021CDE900110A460B4629
:1005100000F0DFF803B000BD00F0004230F0004012
:100520000AD0C10D01F56071C0F3160042EA015115
:10053000C20840071143704700200146704701F090
:10054000004330B421F0004150EA010206D00A0D08
:10055000A2F56072C1F31301002A02DC30BC002056
:100560007047440F44EAC104C100E01830BC00EBFE
:10057000C25000F068B830B50B460146002020227A
:10058000012409E021FA02F59D4205D303FA02F5A0
:10059000491B04FA02F52844151EA2F10102F1DC00
:1005A00030BD2DE9F05F0546002092469B46884607
:1005B0000646814640241BE02846414647462246DF
:1005C00000F018F953465A46C01A914110D311460B
:1005D0001846224600F016F82D1A67EB01084F4620
:1005E00022460120002100F00DF817EB00094E41D2
:1005F000201EA4F10104DFDC484631462A4643466A
:10060000BDE8F09F202A04DB203A00FA02F1002026
:1006100070479140C2F1200320FA03F31943904040
:100620007047202A06DBCB17203A41FA02F043EA52
:10063000E07306E041FA02F3D040C2F1200291409B
:100640000843194670470029A8BF7047401C49005D
:1006500008BF20F00100704710B4B0FA80FC00FA27
:100660000CF050EA010404BF10BC704749B1CCF152
:10067000200421FA04F411FA0CF118BF01212143DE
:100680000843A3EB0C01CB1D4FEA00614FEA102099
:1006900042BF002010BC704700EBC350104400293B
:1006A000A4BF10BC7047401C490008BF20F00100E7
:1006B00010BC704710B5141E73F1000408DA401C1A
:1006C00041F1000192185B411A4301D120F0010071
:1006D00010BD2DE9F04D92469B4611B1B1FA81F261
:1006E00002E0B0FA80F220329046FFF78BFF04461A
:1006F0000F4640EA0A0041EA0B0153465A460843B6
:1007000013D0114653EA010019D0C8F140025046F7
:1007100000F070F805460E46504659464246FFF72F
:1007200071FF084305D0012004E020463946BDE8AA
:10073000F08D0020054346EAE0762C4337430A98C3
:100740006305E40AA0EB08000022FD0A44EA4754CE
:100750000A3002D500200146E9E701051019694178
:10076000DDE9084500196941BDE8F04DA2E7C1F394
:100770000A52C1F3130140F2FF3341F480119A424F
:1007800002DA00200146704740F233439A42A2F257
:10079000334202DC524200F02DB8FFF733BF0000B5
:1007A00030B5041E71F1000404DB4FF000444042F8
:1007B00064EB0101141E73F1000405DB1C464FF0CD
:1007C0000043524263EB0403994208BF904230BD9C
:1007D000064C074D06E0E06840F0010394E807008E
:1007E00098471034AC42F6D3FFF7D8FC58340008D1
:1007F00078340008202A04DB203A21FA02F0002194
:10080000704721FA02F3D040C2F120029140084320
:1008100019467047484910B54A6822F440324A6088
:100820004A6843681A434A6001684A6822F4807241
:100830004A6001684A68036942EA03224A60016823
:100840004A6822F040724A6001684A6883681A4325
:100850004A6001688A6822F400628A6001688A68D6
:10086000C3681A438A60816A6FF07062D14201687E
:100870008A6822F070628A6001688A680CD0836A94
:100880001A438A6001688A6822F040528A600168CF
:100890008A68C36A1A4301E022F040528A60016804
:1008A0008A6822F002028A6001688A68836942EAE3
:1008B00043028A60016A002901684A6815D042F43F
:1008C00000624A6001684A6822F460424A60016836
:1008D0004B684FF46044426A94FAA4F4B4FA84F486
:1008E000521EA24013434B6002E022F400624A60B1
:1008F0000168CA6A22F47002CA620168CA6A838BFC
:100900000E4C04EB03531A43CA6201688A6822F44E
:1009100000728A6001688A68036B42EA43228A6037
:1009200001688A6822F480628A6001688A68406986
:1009300042EA8020886010BD002301400000F0FFE3
:10094000FEE7704778B50024009490F83C20012A17
:1009500019D0012280F83C200A6807230568092A7B
:1009600013D9EE680A3A02EB420293409E43EE60CE
:100970000B788A680A3B03EB43039A400368DD68FF
:100980002A43DA6010E0022078BD2E6902EB4202B1
:1009900093409E432E610B788A6803EB43039A4091
:1009A00003681D692A431A614A681F23072A13D264
:1009B00005686E6B521E02EB820293409E436E638B
:1009C0000B790A885B1E92B203EB83039A4003689B
:1009D0005D6B2A435A6327E005680D2A12D22E6BFD
:1009E000D21F02EB820293409E432E630B790A884A
:1009F000DB1F92B203EB83039A4003681D6B2A430B
:100A00001A6311E0EE6A0D3A02EB820293409E43B4
:100A1000EE620B790A880D3B92B203EB83039A4096
:100A20000368DD6A2A43DA62164B0568144A9D4260
:100A300006D10D68122D03D1556845F48005556027
:100A400005689D4218D10B68102B01D0112B13D1D2
:100A5000536843F400035360096810290CD10A4914
:100A60000A4A0968B1FBF2F101EB8101490000E09B
:100A7000491E00910029FBD180F83C40002078BD40
:100A800000230140002001402000002040420F00D0
:100A9000006C70470068C06C704770B504004FF080
:100AA000000503D0206C002610B107E0012070BDC6
:100AB000666484F83C60204600F01AF8206CC0069A
:100AC00010D4206C20F4885040F0020020642046AE
:100AD000FFF7A0FE6664206C20F0020040F00100E9
:100AE000206400E0012584F83C60284670BD0000C9
:100AF00008B500680649884208D10648016841F4F3
:100B000080710160006800F48070009008BD0000F2
:100B100000200140443802402DE9F04104460068BD
:100B20000D4681684FF0000749050BD58068C00568
:100B300008D5206C40F02000206484F83C7001202F
:100B4000BDE8F08100F082F906460FE0681C0DD088
:100B500025B100F07BF9801BA84207D9206C40F03A
:100B60000400206484F83C700320E9E720680068F2
:100B70008007EBD521686FF012000860206C40F40C
:100B8000007020642068816811F0405F13D1A16972
:100B900089B9C16A11F4700F02D0806840050AD487
:100BA000206C20F480702064206CC00403D4206C7E
:100BB00040F0010020640020C2E7000018B50021C9
:100BC000009190F83C20012A07D0012280F83C20B7
:100BD00002689368DB0702D011E0022018BD936819
:100BE00043F001039360204A204B1268B2FBF3F2FA
:100BF00002EB420200E0521E0092002AFBD1026882
:100C00009368DB072DD0036C40F20164A34343F4E7
:100C10008073036453685B0505D5036C23F40053AC
:100C200043F480530364036CDB0404D5436C23F06A
:100C30000603436400E0416480F83C100C496FF007
:100C40002203136049680068C90602D00949884236
:100C500007D1816811F0405F03D1816841F0804184
:100C60008160002018BD00002000002040420F00DD
:100C7000002301400020014090F83510022903D0E4
:100C80008021416501207047052180F835100068FA
:100C9000016821F0010101600020704731B500F0CA
:100CA000D5F8009C0546601C00D0641C00F0CEF80E
:100CB000401BA042FAD338BD2DE9F84FDFF860B1F0
:100CC00000224FF001084FF0030A4FF00F090BF11B
:100CD000040E00BF0B6808FA02F42340A3426ED151
:100CE0004D68022D01D0122D0ED1D50800EB850CD8
:100CF000DCF820505607F70E09FA07F6B5430E69DF
:100D0000BE402E43CCF82060066855000F790AFAE1
:100D100005FC07F0030726EA0C06AF4037430760DF
:100D20004E68012E05D0022E03D0112E01D0122EB6
:100D30000ED18668CF6826EA0C06AF40374387603D
:100D40004668A6430C79C4F30014944034434460CD
:100D5000C6688C6826EA0C06AC403443C4604C6814
:100D6000E40056D52F4C256845F48045256024685D
:100D700022F0030504F4804400942B4C2E19D6F87D
:100D8000084895072F0F09FA07F5AC43274DA842ED
:100D900001D1002515E0264DA84201D1012510E022
:100DA000244DA84201D102250BE0234DA84201D1D8
:100DB000032506E0214DA84202D1042501E028E0E8
:100DC0000725BD402543C6F80858DBF800405D46BE
:100DD0004E689C43F60300D51C432C60DEF80040AF
:100DE00075464E689C43B60300D51C432C600C4DE1
:100DF00008352C684E689C43F60200D51C432C60D5
:100E0000074D0C352C684E689C43B60200D51C4338
:100E10002C60521C102AFFF45DAFBDE8F88F000073
:100E2000003C0140443802400030014000000240D4
:100E30000004024000080240000C02400010024082
:100E40000AB1816170470904FBE7000001480068AE
:100E5000704700001C00002002480168491C016026
:100E6000704700001C0000200B4810B5016841F4D9
:100E700000710160016841F480610160016841F422
:100E800080710160032000F08BF8002000F006F86C
:100E900000F018F8002010BD003C024010B50446D8
:100EA00007484FF47A710068B0FBF1F000F04DFB99
:100EB00000222146501E00F053F8002010BD000013
:100EC000200000201F4808B5016841F480410160FE
:100ED000006800F4804000901A48001F016841F04B
:100EE00080510160006800F080500090032000F005
:100EF00057F8002211466FF00B0000F031F8002285
:100F000011466FF00A0000F02BF8002211466FF036
:100F1000090000F025F800221146501F00F020F8CB
:100F200000221146101F00F01BF800221146901EEF
:100F300000F016F80022BDE808401146501E00F0EF
:100F40000FB800004438024000F01F020121914018
:100F50004009800000F1E020C0F800117047000057
:100F6000F0B40E4B1B680C46C3F30223C3F1070514
:100F7000042D00D90425191D072901D2002300E002
:100F8000DB1E012606FA05F1491E214099409E40CC
:100F9000761E16403143F0BC01F08CB80CED00E039
:100FA000064900F0070208684FF6FF03184040EAC0
:100FB0000220034A10430860704700000CED00E077
:100FC0000000FA052DE9F047DFF8649105460F4669
:100FD000D9F8000000F00F01F8B28046B94208D2FB
:100FE000014689F80010D9F8000000F00F00B8425F
:100FF00074D128784F4C800705D52068A96820F067
:10100000F000084320602878C00759D04949686833
:10101000083901281AD002281BD0032819D00968E2
:10102000890700295ADA216821F003010143216070
:10103000FFF70CFF6968064641F28830012911D09C
:1010400002291DD00329824627D035E0096889038B
:10105000E7E709688901E4E7FFF7F8FE811B5145DE
:1010600001D926E082462068C0F381000128F3D12F
:1010700026E000BFFFF7EAFE811B514501D918E0C9
:1010800082462068C0F381000228F3D118E000BF37
:10109000FFF7DCFE811B51450BD82068C0F38100AF
:1010A0000328F5D10CE000BFFFF7D0FE811B5145AE
:1010B00002D90320BDE8F087206810F00C0FF3D1AF
:1010C000D9F80010484601F00F01B94208D980F85C
:1010D0000080006800F00F00B84201D00120E9E76D
:1010E0002878400705D52068E96820F4E0500843D7
:1010F00020602878000706D52068296920F4604020
:1011000040EAC100206000F051F82168F02292FA14
:10111000A2F201F0F001B2FA82F2D140064A515C2B
:10112000C840064908600020FFF7B8FE0020C1E76C
:10113000003C0240083802404034000820000020F3
:101140000148006870470000200000200848094955
:10115000006809684FF4E05292FAA2F201F4E051FB
:10116000B2FA82F2D140044A515CC8407047000094
:10117000200000200838024050340008084809497F
:10118000006809684FF4604292FAA2F201F46041EB
:10119000B2FA82F2D140044A515CC8407047000064
:1011A00020000020083802405034000830B51948AB
:1011B000006810F00C01184812D0441004290ED019
:1011C00008290DD11349091F0A6802F03F030A6874
:1011D000550247F6C07204D5B4FBF3F003E0204695
:1011E00030BDB0FBF3F00B680968134092FAA2F22D
:1011F000B2FA82F2D34058434FF4403292FAA2F24C
:1012000001F44031B2FA82F2D140491C4900B0FBEE
:10121000F1F030BD083802400024F4002DE9F84F09
:101220000546DFF8FC920078A9F1040BC007ABF18A
:10123000040449D0D9F800104846C1F381010129BE
:1012400008D00068C0F3810002280AD1DBF8000052
:10125000400206D52068800336D5686800286ED025
:1012600032E06868B0F5803F10D0B0F5A02F20685C
:1012700010D020F480302060206820F4802020608E
:101280006868A0B1FFF7E2FD06460CE0206840F474
:101290008030F4E740F480202060F7E7FFF7D6FDC8
:1012A000801B642871D820688003F7D50CE0FFF715
:1012B000CDFD064605E000BFFFF7C8FD801B642892
:1012C000F0D820688003F7D42878964F80074FF035
:1012D000010A4FF0000841D5D9F80010484611F036
:1012E0000C0F08D00068C0F3810002280AD1DBF897
:1012F0000000400206D42068800713D5E868012862
:101300001DD10FE0E868D8B1C7F800A0FFF79EFD37
:10131000064604E0FFF79AFD801B0228C2D8206829
:101320008007F7D52068F82292FAA2F22969B2FA6A
:1013300082F220F0F8009140084320600EE0ECE0DB
:10134000C7F80080FFF782FD064604E0FFF77EFD48
:10135000801B022819D820688007F7D42878000756
:1013600024D57148696989B1C0F800A0FFF76EFD06
:10137000064604E0FFF76AFD801B022805D868488E
:101380006C3000688007F5D510E07AE0C0F8008086
:10139000FFF75CFD064604E0FFF758FD801B0228BE
:1013A0006FD85F486C3000688007F5D42878400714
:1013B00053D55B483830016841F0805101600068C6
:1013C00000F0805000905948016841F4807101603C
:1013D000FFF73CFD064604E0FFF738FD801B0228BE
:1013E0004FD852480068C005F6D54D4EA8686836FB
:1013F00001280FD00528306810D020F0010030609F
:10140000306820F004003060A868B8B1FFF71EFD16
:1014100000900FE0306840F00100F4E740F0040075
:101420003060F7E7FFF712FD0099411A41F288306A
:1014300081426AD830688007F4D50EE0FFF706FDD8
:10144000009007E0FFF702FD0099411A41F2883051
:1014500081425AD830688007F4D4A869E8B3D9F833
:101460000010C1F38101022957D00228C7F860801B
:1014700003D0FFF7EBFC05464AE0FFF7E7FC064622
:1014800005E042E0FFF7E2FC801B02283DD820681F
:101490008001F7D4D5E90701084347F6C07292FAF4
:1014A000A2F2696AB2FA82F29140AA6A4FF0FF335F
:1014B00003EB52024FF4403393FAA3F3B3FA83F3EE
:1014C0009A40114308434FF0706292FAA2F2E96A1F
:1014D000B2FA82F29140084300E01CE0CBF8000031
:1014E000C7F860A0FFF7B2FC054604E0FFF7AEFCCA
:1014F000401B022809D820688001F7D50BE000BF07
:10150000FFF7A4FC401B022802D90320BDE8F88F96
:1015100020688001F4D40020F8E70120F6E70000FD
:101520000838024000004742800E474200700040E9
:101530004FF0E0210428086903D020F0040008617E
:10154000704740F00400FAE7704710B5401EB0F154
:10155000807F01D3012010BD4FF0E02460610F2196
:10156000601700F0A7FD0020A06107202061002087
:1015700010BD10B5FFF7E8FF10BD7047704730B5DC
:1015800090F83820012A20D0012280F83820022348
:1015900080F8393003685C6824F070045C6003688C
:1015A0005C680D682C435C6003689C6824F08004D0
:1015B0009C6003689C6849680C439C6080F83920F3
:1015C000002180F83810084630BD022030BD10B52B
:1015D000040003D094F8390010B107E0012010BDD9
:1015E000002084F83800204600F00CF8022084F82F
:1015F0003900211D206800F0EFFD012084F839003A
:10160000002010BD00B5184B02680021174887B0B4
:101610009A421CD1026842F002020260006800F0A7
:1016200002000590402000900220CDE902010190C7
:10163000049069460E48FFF73FFB002211461D202B
:10164000FFF78EFC1D20FFF77FFC07B000BD0949A6
:101650008A42FAD1016841F004010160006800F09B
:1016600004000590F1E7000000040040403802400B
:10167000000002400008004070B5044690F83800B1
:10168000012817D0012584F83850022084F8390049
:101690002068826822F0770222F47F428260086824
:1016A000502837D00DDC202859D005DC88B310280D
:1016B00041D151E0022070BD302853D040283AD1AA
:1016C0003FE060282ED070280BD0B0F5805F03D0AB
:1016D000B0F5005F2FD110E02068816821F007018C
:1016E00015E0CB68D1E90121206800F0C8FD216830
:1016F000886840F0770088601DE0CB68D1E901215F
:10170000206800F0BCFD2068816841F48041816060
:1017100011E01EE0CA684968206800F065FE5021AB
:10172000206806E0CA684968206800F0A7FE6021CA
:10173000206800F0AEFD84F83950002084F83800AD
:1017400070BDCA684968206800F04EFE40212068DC
:10175000EFE700212068ECE710212068E9E720216D
:101760002068E6E730212068E3E7000010B5124A60
:101770000168914210D1027E012A0DD10F4CA2685E
:10178000012A0AD0022A07D1496B6161002100F0C9
:10179000E8F8A068401CA06010BD496B2161016899
:1017A0000A6A4FF6F5731A400A620068016A41F04E
:1017B000020101620220EEE7000400400000002068
:1017C0002DE9F041044690F838000D4601283DD03F
:1017D000012684F83860022084F83900AAB3042A6C
:1017E00046D02068082A55D0D5E90027E968036A61
:1017F00023F480530362D0F81CC0036A2CF4407CAD
:101800004CEA07274FF6FF7C27F470470CEA0131BA
:1018100039434FF4204723F4204307EA02321A43A6
:10182000C16102622068C16921F44061C161206820
:10183000C169AA6841EA0221C0F81C1084F8396025
:10184000002084F83800BDE8F08101E00220FAE7CA
:10185000D5E90012EB68206800F0D8FD20688169A6
:1018600021F00C01816120688169AA6811430FE0B1
:10187000D5E90012EB68206800F012FE206881694B
:1018800021F44061816120688169AA6841EA0221EE
:101890008161D3E7D5E9002C2F7B016A21F48071A7
:1018A0000162C169036A21F0030141EA0C0121F0E0
:1018B000F00C39074FF420674CEA116123F42063E0
:1018C00007EA02221A43C16102622068C16921F05D
:1018D0000C01C1612068C169AA681143ACE710B569
:1018E000040003D094F8390010B107E0012010BDC6
:1018F000002084F83800204600F00CF8022084F81C
:101900003900211D206800F067FC012084F83900AF
:10191000002010BD704710B50268044631B104299B
:1019200008D0082915D00C2908D116E0D06840F05D
:10193000020002E0D06840F00400D060012220687C
:1019400000F092FC2068016841F001010160002074
:1019500010BDD06840F00800EFE7D06840F01000FC
:10196000EBE710B50268044631B1042908D0082914
:101970001ED00C2908D11FE0D06820F0020002E040
:10198000D06820F00400D0600022206800F06CFCD9
:101990002068016A41F21112114207D1016A9210C6
:1019A000114203D1016821F001010160002010BD46
:1019B000D06820F00800E6E7D06820F01000E2E7E9
:1019C00070B50446006801694FF00005C9438907F6
:1019D00015D4C168C943890711D4E91E01610120EA
:1019E0002076206880698007204602D0FFF7BEFE7F
:1019F00004E000F0B1F8204600F033F925762068C5
:101A00000169C943490717D4C168C943490713D4B9
:101A10006FF004010161022020762068806910F4D3
:101A2000407F204602D0FFF7A1FE04E000F094F8CA
:101A3000204600F016F9257620680169C943090798
:101A400016D4C168C943090712D46FF008010161B7
:101A5000042020762068C0698007204602D0FFF766
:101A600085FE04E000F078F8204600F0FAF82576CC
:101A700020680169C943C90617D4C168C943C906AA
:101A800013D46FF010010161082020762068C0692E
:101A900010F4407F204602D0FFF768FE04E000F01B
:101AA0005BF8204600F0DDF8257620680169C9431F
:101AB000C90708D1C168C943C90704D1891E01619A
:101AC000204600F0E7F820680169C943090609D4F7
:101AD000C168C943090605D46FF080010161204641
:101AE000FFF74BFD20680169C943490609D4C16865
:101AF000C943490605D46FF040010161204600F05A
:101B0000CAF820680169C94389060BD4C168C94372
:101B1000890607D46FF0200101612046BDE87040BE
:101B2000FFF72CBD70BD000000B50068084985B006
:101B300088420BD14020009002200021CDE9010114
:101B4000CDE9031069460348FFF7B6F805B000BDBC
:101B50000008004000040240704770B5044690F849
:101B600038000D4601280DD0012684F83860022087
:101B700084F8390042B1042A18D0082A2AD00C2A45
:101B80004DD139E0022070BD206800F08BFB206849
:101B9000816941F0080181612068816921F00401B7
:101BA0008161206881692A69114311E0206800F091
:101BB000A1FB2068816941F400618161206881692D
:101BC00021F480618161206881692A6941EA0221EA
:101BD000816124E0206800F0B9FB2068C16941F010
:101BE0000801C1612068C16921F00401C161206858
:101BF000C1692A69114311E0206800F0D3FB206815
:101C0000C16941F40061C1612068C16921F480614A
:101C1000C1612068C1692A6941EA0221C16184F871
:101C20003960002084F8380070BD10B5040003D07E
:101C300094F8390010B107E0012010BD002084F8AD
:101C40003800204600F00CF8022084F83900211DED
:101C5000206800F0C1FA012084F83900002010BD8E
:101C60007047704710B504460068012200F0FCFA86
:101C700007492068884203D1416C41F40041416426
:101C80002068016841F001010160002010BD0000E2
:101C900000000140704770477047000070B502684F
:101CA00004461068D168536910F00F0F50D003F04C
:101CB000010501F4907635435DD0C20705D0CA0511
:101CC00003D5E26B42F00102E263420705D5DA0771
:101CD00003D0E26B42F00202E263820705D5DA0725
:101CE00003D0E26B42F00402E263020705D5DA0793
:101CF00003D0E26B42F00802E263E26B002A33D0C9
:101D0000800604D5880602D5204600F0FAFB20683C
:101D10004069E16BC0F38010090700D428B3204666
:101D200000F0E1FB2068416949061AD5416921F0BC
:101D300040014161606BA0B11B490165606BFEF71A
:101D40009BFF002810D0606B016DBDE87040084714
:101D5000830610D58B060ED52046BDE8704000F0F6
:101D6000D0BB2046FFF798FF70BD2046FFF794FFD9
:101D70000020E06370BD030606D50B0604D520469F
:101D8000BDE8704000F05ABD4006F3D54806F1D5D5
:101D9000D168204621F04001D160202184F839101B
:101DA00000F0E6F870BD0000D724000870B504000C
:101DB00004D094F83900002510B106E0012070BD70
:101DC00084F83850204600F023F8242084F83900A5
:101DD0002068C16821F40051C160204600F0D8FBA2
:101DE0002068016921F4904101612068416921F076
:101DF0002A0141612068C16841F40051C160E56376
:101E0000202084F8390084F83A00002070BD0000DA
:101E100000B50068124987B088421ED11148016898
:101E200041F4003101600068694600F4003005901B
:101E30000C200090022001900120029003200390CA
:101E4000072004900848FEF737FF0022114626209D
:101E5000FFF786F82620FFF777F807B000BD0000EF
:101E600000440040403802400000024090F83A3000
:101E7000202B1DD1D1B1CAB190F83830012B17D029
:101E800081628285C2850021C163222280F83A20C6
:101E900080F8381001684A6942F001024A6100681E
:101EA000C16841F49071C160002070470120704703
:101EB0000220704770472DE9F843044690F8390036
:101EC0001F4616460D46202850D1A5B19EB194F864
:101ED000380001284AD0012084F838004FF000086B
:101EE000C4F83C80212084F83900FEF7AFFFA684B7
:101EF0008146E68426E00120BDE8F883E08C401EA0
:101F0000E084A0684B46B0F5805F4FF000024FF0D0
:101F100080012046009703D000F0C1FCE8B90DE035
:101F200000F0BDFCC8B928882168C0F308004860EB
:101F3000206908B16D1C05E0AD1C03E0216815F8AF
:101F4000010B4860E08C0028D8D14B46002240218C
:101F50002046009700F0A3FC08B10320CCE7202026
:101F600084F8390084F838800020C5E70220C3E7F0
:101F70007047FEE77FB511480F490024C0E90014FF
:101F80008460046184610E490462C0E90A14012579
:101F9000C460C56145610463FEF77FFD00B1FEE7E3
:101FA0001020CDE90005694602940448FEF7CAFCFA
:101FB000002800D0FEE77FBD00200140280000205F
:101FC0000100000F10B51B488AB0194901600F21AC
:101FD0000024C0E901144FF6FF71C0E90314FFF7B4
:101FE000F6FA00B1FEE74FF48050049004A91148BE
:101FF000FFF742FB00B1FEE70E48FFF770FC00B1AF
:10200000FEE7089408A90B480994FFF7B8FA00B155
:10201000FEE70120CDE90040029400226946054810
:102020000394FFF7CDFB002800D0FEE70AB010BDF7
:10203000000400407000002010B51C488EB01A4902
:1020400001600F210024C0E901146321C0E90314D9
:10205000FFF7BDFA00B1FEE74FF48050079007A9E3
:102060001248FFF709FB00B1FEE71048FFF7DDFD5E
:1020700000B1FEE70B940BA90C480C94FFF77FFA14
:1020800000B1FEE7602000901E20CDE9010400228F
:10209000694606480494FFF760FD00B1FEE7034877
:1020A000FFF742FD0EB010BD00080040AC0000205C
:1020B000FEE770470907090E002806DA00F00F0056
:1020C00000F1E02080F8141D704700F1E02080F856
:1020D000001470477047704710B5FEF7BDFEBDE8AD
:1020E0001040FFF746BA000010B5214892B0002416
:1020F000016841F080510160006800F0805011904B
:102100001C48016821F4404141F40041016000682D
:10211000069400F4404011900220009001200390AA
:10212000102004906846FFF779F800B1FEE70F2011
:10213000CDE90C044FF48050CDE90E4000210CA8ED
:102140001094FEF73FFF00B1FEE7FEF7F9FF4FF4F2
:102150007A71B0FBF1F0FFF7F8F90420FFF7E8F926
:1021600000221146501EFEF7FBFE12B010BD00000B
:1021700040380240007000401048016841F470018E
:1021800001600F48016841F0010101600C4A002123
:102190000832116002680B4B1A400260031D0A4AA4
:1021A0001A60026822F48022026005480C30016047
:1021B00002495806803908607047000088ED00E049
:1021C00000380240FFFFF6FE103000240148FFF700
:1021D000F7BB000070000020F0B502681B4B1C4CE0
:1021E0009F031C4D1C4E984207D0B84205D0A04218
:1021F00003D0A84201D0B04204D122F0700C4A684A
:1022000042EA0C02984210D0B8420ED0A0420CD044
:10221000A8420AD0B04208D0104CA04205D0104CC1
:10222000A04202D00F4CA04203D122F44074CA68ED
:10223000224302608A68C2620A688262984201D1BF
:102240000969016301214161F0BD00000000014006
:102250000004004000080040000C00400040014025
:10226000004401400048014010B50123046A8B403E
:102270009C430462036A8A401343036210BD10B595
:10228000846842EA032224F47F440A4322438260A2
:1022900010BD826822F070020A4342F0070181609B
:1022A0007047000030B5026A22F001020262026A41
:1022B0004368846924F073050C682C4322F00205FE
:1022C0008A682A430A4DA8420BD122F00805CA6841
:1022D00023F440732A434D6922F004021D438B69A5
:1022E0002B434360846149684163026230BD000052
:1022F0000000014030B5026A22F010020262026A58
:10230000436884690D6824F4E64444EA05248D6832
:1023100022F0200242EA05120B4DA8420ED1CD68F0
:1023200022F0800242EA05124D6923F4406343EA39
:1023300085038D6922F0400243EA8503436084618E
:1023400049688163026230BD0000014030B5026A15
:1023500022F480720262036A4268C46923F4007343
:1023600024F073050C682C438D6843EA05230C4D5B
:10237000A8420ED1CD6823F4006343EA05234D69DA
:1023800022F4405242EA05128D6923F4806342EA46
:1023900005124260C4614968C163036230BD000038
:1023A0000000014030B5026A22F480520262046AE1
:1023B0004268C3690D6823F4E64343EA05238D6848
:1023C00024F4005444EA0534064DA84204D14D6972
:1023D00022F4804242EA85124260C3614968016486
:1023E000046230BD0000014010B5036A046A24F0A5
:1023F00001040462846924F0F00444EA021423F026
:102400000A020A438461026210BD000070B5046ACA
:1024100024F0010404628469056A134EB0420ED0B0
:10242000B0F1804F0BD0114EB04208D0104EB042E8
:1024300005D0104EB04202D00F4EB04203D124F06E
:102440000304144303E024F0030242F001041A07DA
:1024500024F0F00444EA126225F00A0301F00A01B4
:1024600019438261016270BD000001400004004018
:1024700000080040000C00400040014010B5036A15
:1024800023F0100303628369046A23F4704343EA70
:10249000023224F0A00343EA01118261016210BDFF
:1024A00030B5046A24F0100404628469056A24F4D7
:1024B000407444EA022222F470444FF6FF7202EAAA
:1024C00003322243A02425F0A00304EA011119439A
:1024D0008261016230BD10B5806B0021C185C1846D
:1024E000FFF7DAFB10BD0168CA6822F49072CA6077
:1024F00001684A6922F001024A61202180F83A10FD
:10250000704710B590F83A10222901D0022010BD72
:102510008168B1F5805F11D00169002901681FD081
:10252000496801F07F03816A4A1C82620B70C18D89
:10253000491E0904090CC18518D026E00269816A88
:10254000002A0268526805D0D2B20A80816A491C0A
:102550008162ECE7C2F308020A80816A891CF7E70E
:102560004A68816A4B1C83620A70E0E70168CA68A6
:1025700022F49072CA6001684A6922F001024A613D
:10258000202180F83A10FFF795FC002010BD0000D4
:102590002DE9F04104460068016921F44052E168E8
:1025A000114301612168C86849F20C6290432369B4
:1025B000A268E5691A4363692B431A430243CA6060
:1025C0002168486920F44072A06910434861E169BC
:1025D0006425B1F5004F9748974A21684FF03208BB
:1025E0003FD0914201D081427CD1FEF7C7FD00EB84
:1025F000C00101EB001061688900B0FBF1F6FEF745
:10260000BDFD00EBC00101EB001061688900B0FB6B
:10261000F1F0B0FBF5F06FF01801484306EB8001D4
:1026200008EB0110B0FBF5F000F0F006FEF7A6FD98
:1026300000EBC00101EB001061688900B0FBF1F014
:10264000B0FBF5F006EB0016FEF798FD00EBC001BD
:1026500001EB001061688900B0FBF1F7FEF78EFD19
:10266000D2E0914201D081423DD1FEF787FD00EBDF
:10267000C00101EB001061684900B0FBF1F0B0FB54
:10268000F5F00601FEF77AFD00EBC00101EB00104A
:1026900061684900B0FBF1F7FEF770FD00EBC00187
:1026A00001EB001061684900B0FBF1F0B0FBF5F000
:1026B0006FF01801484307EB800108EBC100B0FB45
:1026C000F5F000F0F80006EB4006FEF757FD00EBD2
:1026D000C00101EB001061684900B0FBF1F7FEF7A3
:1026E0004DFD3CE055E0FEF731FD00EBC00101EB94
:1026F000001061684900B0FBF1F0B0FBF5F0060195
:10270000FEF724FD00EBC00101EB001061684900F9
:10271000B0FBF1F7FEF71AFD00EBC00101EB001072
:1027200061684900B0FBF1F0B0FBF5F06FF0180103
:10273000484307EB800108EBC100B0FBF5F000F067
:10274000F80006EB4006FEF701FD00EBC00101EBCF
:10275000001061684900B0FBF1F7FEF7F7FC00EBF1
:10276000C00101EB001061684900B0FBF1F0B0FB63
:10277000F5F06FF01801484307EB800108EBC1004A
:10278000B0FBF5F000F00700216830448860BDE838
:10279000F081FEF7DBFC00EBC00101EB001061688B
:1027A0008900B0FBF1F6FEF7D1FC00EBC00101EBB4
:1027B000001061688900B0FBF1F0B0FBF5F06FF03C
:1027C0001801484306EB800108EB0110B0FBF5F05F
:1027D00000F0F006FEF7BAFC00EBC00101EB0010C0
:1027E00061688900B0FBF1F0B0FBF5F006EB001674
:1027F000FEF7ACFC00EBC00101EB00106168890042
:10280000B0FBF1F7FEF7A2FC00EBC00101EB0010FA
:1028100061688900B0FBF1F0B0FBF5F06FF01801D2
:10282000484307EB800108EB0110B0FBF5F000F026
:102830000F00A9E7001401400010014090F8391082
:10284000212901D0022070478168B1F5805F016ABB
:102850000BD04A1C0262026809785160C18C491E83
:102860000904090CC1840ED017E009880268C1F37D
:102870000801516001690029016A02D0491C016206
:10288000ECE7891CFBE70168CA6822F08002CA6095
:102890000068C16841F04001C160002070472DE927
:1028A000F041984617460E460446069D1DE0681CFA
:1028B0001BD02DB1FEF7CAFAA0EB0800A84214D92C
:1028C0002068C16821F4D071C1602068416921F09D
:1028D00001014161202084F8390084F83A00002089
:1028E00084F838000320BDE8F0812068006836EAEB
:1028F000000004D00020B842D9D00020F3E7012026
:10290000F9E700000148FFF7C9B90000E80000201E
:10291000FEE700000FB4054B10B503A9044A029866
:1029200000F0DAF810BC5DF814FB00000932000872
:102930002400002002E008C8121F08C1002AFAD1B2
:1029400070477047002001E001C1121F002AFBD12F
:10295000704700002DE9FF5F82B00021DDE90430FF
:10296000020DDDF840B0034318D044F61050A2F237
:10297000FF3242431514119801281FD0A5EB0B001C
:10298000401C5FEA000A4FF000064E4FDFF8389116
:10299000B046504615D5CAF1000413E01198012441
:1029A0004AA3012801D16FEA0B010298119AC0E9EC
:1029B0000031C0E9024206B0BDE8F09FCBF1000053
:1029C000DFE704460021404A491842EB0450CDE9B4
:1029D000001012E0E00707D032463B464046494629
:1029E000FDF79BFC8046894632463B461046194619
:1029F000FDF793FC06460F466410002CEAD1DDE992
:102A00000401DDE90023BAF1000F06DAFDF785FCC9
:102A100042464B46FDF781FC05E0FDF7F0FC4246DF
:102A20004B46FDF7ECFC04460E460022284BFDF712
:102A3000B7FE03D84FF0FF30014607E00022254BD8
:102A400020463146FDF7C2FBFDF791FE102409E058
:102A5000002C0ADB0A220023FDF7A3FD039B303282
:102A60001A55641E50EA0102F2D1641C039AC4F1A3
:102A700011031444119A012A03D0012208430DD1F5
:102A80000AE0084304D000204FF0110B119072E7C8
:102A9000A3EB0B056D1E0DE05B4504DD4FF000025E
:102AA00005F1010504E003DA4FF00002A5F101058C
:102AB000002AECD002981199C0E90231C0E9004522
:102AC00079E70000000014400000F03F30000000F3
:102AD0000000F0430000E03F2DE9FF4F95B09B461A
:102AE0008946064600250FE2252877D1002427468F
:102AF000F84A0121059400E0044316F8013F203B09
:102B000001FA03F01042F7D130782A2811D06FF083
:102B10002F033078A0F13002092A16D8059A44F024
:102B2000020402EB820203EB42021044761C059081
:102B3000EFE759F8042B0592002A03DA504244F4D7
:102B40000054059044F00204761C30782E2816D1EB
:102B500016F8010F44F004042A280DD06FF02F025C
:102B60003078A0F13003092B09D807EB870302EB7B
:102B70004303C718761CF3E759F8047B761C3078BA
:102B80006C280FD006DC4C2817D068280DD06A2896
:102B900014D104E0742810D07A280FD10DE044F449
:102BA00000140AE044F4801401E044F44014727804
:102BB000824202D104F58014761C761C3078662897
:102BC0000BD013DC582877D009DC002875D04528B5
:102BD000F6D04628F4D047281AD19DE118E06328A2
:102BE00035D0642879D0652812D195E1702873D04A
:102BF00008DC6728F1D069286FD06E280DD06F28C7
:102C000006D1B5E073282CD0752875D0782874D0FB
:102C10005A46179990476D1C75E1C4F3025002287B
:102C200009D003280DD0D9F8001004280DD00D606C
:102C300009F1040967E1D9F80010EA17C1E9005267
:102C4000F6E7D9F800100D80F2E70D70F0E719F8FB
:102C5000041B8DF8001000208DF80100EA460120C9
:102C600003E059F804AB4FF0FF3061074FF000016B
:102C700002D40DE008F101018846B9420FDA80451F
:102C8000F8DB1AF808100029F4D108E008F1010176
:102C900088468142FADB1AF808100029F6D1059817
:102CA0005B46A0EB080721463846179A00F094FAD5
:102CB000284400EB080507E04DE029E10DE01AF893
:102CC000010B5A4617999047B8F10108F7D25B46B5
:102CD00021463846179A13E142E00A220092C4F3D3
:102CE00002524FF0000A022A08D059F804CB032AF6
:102CF0004FEAEC710AD00DE029E02AE009F1070162
:102D000021F00702F2E802C1914609E00FFA8CFCBB
:102D10004FEAEC71042A03D14FFA8CFC4FEAEC71B4
:102D2000002907DA0A460021DCF1000C61EB020100
:102D30002D2202E0220504D52B228DF80420012249
:102D400003E0E20701D02022F7E7904659E00A218C
:102D500002E010220DE010214FF0000A00910BE07C
:102D600010224FF0000A44F004040827009203E008
:102D700008224FF0000A0092C4F30252022A05D042
:102D800059F804CB0021032A08D009E009F1070112
:102D900021F00702F2E802C1914605E01FFA8CFC1F
:102DA000042A01D10CF0FF0C4FF00008220728D5AF
:102DB000702806D0009B83F0100353EA0A0305D065
:102DC0000EE040228DF80420012208E05CEA0102B6
:102DD00006D030228DF804208DF80500022290469E
:102DE000009B83F0080353EA0A030AD15CEA01025C
:102DF00001D1620705D530228DF804204FF001087B
:102E00007F1E582804D034A003900EA802900DE035
:102E100036A0F9E753466046009AFDF7C2FB8446A8
:102E20000398825C0298401E029002705CEA0100E6
:102E3000F0D1029806A9081A00F1200A600702D50D
:102E400024F4803400E00127574502DDA7EB0A0097
:102E500000E0002000EB0A01009005984144401A70
:102E60000590E00306D45B462146179A059800F0CA
:102E7000B3F90544002706E001A85A46C05D17993A
:102E800090476D1C7F1C4745F6DBE0030CD55B4685
:102E90002146179A059800F09FF9054404E0302078
:102EA0005A46179990476D1C0099481E00900029BA
:102EB000F5DC08E0029802995A460078491C029114
:102EC000179990476D1CBAF10001AAF1010AF1DCD3
:102ED00065E10000092801003031323334353637DE
:102EE0003839616263646566000000003031323356
:102EF00034353637383941424344454600000000F6
:102F000000F058F90544761C307800287FF4ECADC9
:102F100019B02846BDE8F08F620700D4062709F1F2
:102F2000070222F0070CFCE80223E14603F0004808
:102F30005FEA080C02D00FF2702C0DE05FEA045C2F
:102F400002D50FF2682C07E05FEAC47C02D00FF2D2
:102F5000602C01E0AFF2700C4FF0FF3823F000431B
:102F6000CDF850C065280CD006DC452809D046288D
:102F70001DD047283DD13DE0662818D067287ED176
:102F800038E00021112F01DB112000E0781CCDE991
:102F9000000106A90EA8FFF7DDFCDDE90F010E9A7E
:102FA00003910021009207F1010A04914DE04FF0D6
:102FB00000400097CDE9011006A90EA8FFF7CAFC52
:102FC000DDE90F0203920E9B11990022DDF80CA09F
:102FD0000093049211B9791C00EB010AB7EB0A00C7
:102FE00004D4C0F1FF3007F1010A0490AAEB0700F6
:102FF000019044E0012F00DA01270021112F01DDAB
:10300000112000E03846CDE9000106A90EA8FFF71F
:10301000A1FCDDE90F010E9A0391002104910092B9
:10302000BA4621070CD40399514500DA8A46BAF111
:10303000010F05DD009AAAF10101515C302908D089
:10304000B84202DA10F1040F06DA0121CDE90110CD
:1030500015E0AAF10101E9E7002805DC0499014423
:103060000491AAEB000102E0411C514500DD8A46B3
:103070000499401A401C01904FF000400290200734
:1030800004D40198504501DBCDF8048000208DF870
:103090004F0002980DF14F07B0F1004F25D02B20C3
:1030A0000E9002984FF0020800280CDA404202907D
:1030B0002D200E9007E00A210298FDF75CFA3031CE
:1030C000029007F8011DB8F10001A8F10108F2DC37
:1030D00002980028EFD1791E0E980870307800F021
:1030E000200040F0450007F8020D12A8C01B00F1B7
:1030F00007081498007800B1012000EB0A0101983C
:1031000001EBE07105984144401A401E0590E00330
:1031100006D45B462146179A059800F05DF80544F1
:103120001498007818B15A46179990476D1CE0031F
:1031300024D55B462146179A059800F04DF80544C2
:103140001CE00498002807DBDDE90301884203DD69
:103150000098405C179901E0179930205A46904733
:10316000049805F10105401C04900198401E01904F
:1031700004D12E205A46179990476D1CBAF10001D0
:10318000AAF1010ADDDC05E017F8010B5A46179990
:1031900090476D1CB8F10001A8F10108F4DC5B4612
:1031A0002146179A0598ABE62D0000002B00000081
:1031B000200000002DE9F041044600251E46174678
:1031C000880404D405E039462020B0476D1C641EF5
:1031D000F9D52846BDE8F0812DE9F04104460025E7
:1031E0001E469046C80301D5302700E020278804FA
:1031F00004D505E041463846B0476D1C641EF9D53C
:103200002846BDE8F081000013B54FF6FF73012298
:1032100069460248FEF74FFE00981CBDE8000020FA
:1032200086B0FDF721FEFEF75FFF72484FF0000801
:103230004446016841F001010160016801F00101AB
:103240000591016841F00201016000686A4E00F0DA
:10325000020005904246A0213046FDF7F1FDA02076
:1032600000900127CDE90174694630460394FDF7CB
:1032700023FD6348614901604FF41651C0E9011410
:103280000C21C460C0E904418461C461FEF78EFD75
:1032900000B1FEE7FEF76EFEFEF794FEFEF7CCFEF1
:1032A000574800213C38FEF7DDFC564CA51C55491B
:1032B0000222891C5248FEF7D9FDA06810B10328EC
:1032C00044D111E04E49A76078390868026A4FF688
:1032D000F5731A4002620868016A016248480021D9
:1032E0007838FEF718FB31E0D4E90401814202D3BB
:1032F000A1EB0002A26101D3A06905E04FF6FF72C5
:10330000A2EB00000844A061FDF7F9F89FED3E1B19
:1033100053EC112BFDF773F89FED3D1B53EC112B74
:10332000FCF7FBFF9FED3C1B53EC112BFCF7F5FF6B
:10333000FDF705F9E060FDF7EFF841EC100B38A060
:1033400053EC102BFFF7E6FAC4F8088028783028F1
:1033500011D168783028AAD1012280213046FDF7AA
:103360006FFD0120FDF79AFC002280213046FDF719
:1033700067FD312068702878312898D16878312825
:1033800095D11F48C038FDF719FC1D483221C038BF
:10339000FDF7C2FB1A48C038FDF77AFB800525D53A
:1033A0001748C038FDF776FB80B2208040F6E44134
:1033B00048431D4901EB1030FDF790F89FED1B1BB2
:1033C00053EC112BFDF71BF89FED1A1B53EC112B3F
:1033D000FCF7FCFEFDF7B3F86060FDF79DF841ECEB
:1033E000100B16A053EC102BFFF794FA30206870E6
:1033F0005DE7000030380240000002400044004019
:10340000E800002000000020000000000088C34009
:103410000000000000407540000000000000E03F98
:10342000252E33660000000008FDFFFF00000000AD
:103430000000044000000000000039402566000044
:103440000000000000000000010203040607080954
:10345000000000000102030478340008000000208E
:103460002800000034290008A034000828000020AB
:1034700000050000442900080000000000000000D2
:10348000000000000000000000000000000000003C
:1034900000000000000000000024F4000000000014
:040000050800019559
:00000001FF
